:100000000C945D000C9485000C9485000C94850084
:100010000C9485000C9485000C9485000C9485004C
:100020000C9485000C9485000C9485000C9485003C
:100030000C9485000C9485000C9485000C9485002C
:100040000C94A2010C9485000C94AC030C94E8036E
:100050000C9485000C9485000C9485000C9485000C
:100060000C9485000C94850000000007000201003C
:100070000003040600000000000000000102040864
:100080001020408001020408102001020408102002
:10009000040404040404040402020202020203032E
:1000A0000303030300000000250028002B000000CC
:1000B0000000240027002A00A50411241FBECFEF52
:1000C000D8E0DEBFCDBF11E0A0E0B1E0EAECFDE09A
:1000D00002C005900D92A033B107D9F711E0A0E35B
:1000E000B1E001C01D92A63EB107E1F710E0CAEBF6
:1000F000D0E004C02297FE010E94DF06C83BD10772
:10010000C9F70E94F5040C9475060C94000061E098
:10011000809104010E94A10261E0809102010E948D
:10012000A10240E855E260E070E08FE391E00E94B8
:1001300023048FE391E00E94A3048823D1F367E0B6
:1001400071E08FE391E00C9459050F931F93CF93C7
:10015000DF938C01C4E0D1E061E088810E94D90284
:10016000B801882777FD8095982F0E94160260E0DD
:100170008881DF91CF911F910F910C94D902AF929A
:10018000BF92CF92DF92EF92FF920F931F9388EC72
:1001900090E00E94A500809134010E94200190937C
:1001A0003301809332016DE071E08FE391E00E94B2
:1001B0003A0560913201709133014AE050E08FE3DB
:1001C00091E00E9414066CEB72E0809132019091F4
:1001D0003301681B790B70933301609332018827D8
:1001E00077FD8095982F1F921F921F922FEF2F93CC
:1001F000A12CB12C65011CEBE12E12E0F12E00E0E8
:1002000010E020E030E0A9010E942E067093310139
:1002100060933001809100010E9441010F900F9086
:100220000F900F9068EC70E080E090E01F910F91CC
:10023000FF90EF90DF90CF90BF90AF900C9416029C
:100240008E3008F08E5087702091060140E4249F84
:1002500090011124822B80937C0080917A0080642D
:1002600080937A0080917A0086FDFCCF20917800FF
:1002700030917900932F80E0AC01422B9A01C901A3
:1002800008951F93CF93DF93182FEB0161E00E9435
:10029000A102209711F460E004C0CF3FD10539F4EA
:1002A00061E0812FDF91CF911F910C94D902E12F52
:1002B000F0E0E859FF4FE491E330B9F028F4E13081
:1002C00051F0E230B1F50CC0E63019F1E73049F1F8
:1002D000E43079F514C084B5806884BDC7BD2EC0F4
:1002E00084B5806284BDC8BD29C0809180008068CB
:1002F00080938000D0938900C09388001FC08091B4
:100300008000806280938000D0938B00C0938A002D
:1003100015C08091B00080688093B000C093B30096
:100320000DC08091B00080628093B000C093B40093
:1003300005C0C038D1050CF0B3CFADCFDF91CF9160
:100340001F9108951F920F920FB60F9211242F93B1
:100350003F938F939F93AF93BF938091360190917A
:100360003701A0913801B091390130913E01232F1E
:100370002D5F2D3720F40196A11DB11D05C0232F3F
:100380002A570296A11DB11D20933E01809336018C
:1003900090933701A0933801B093390180913A01CD
:1003A00090913B01A0913C01B0913D010196A11DAE
:1003B000B11D80933A0190933B01A0933C01B0930F
:1003C0003D01BF91AF919F918F913F912F910F90E0
:1003D0000FBE0F901F9018950F931F939FB7F8941F
:1003E00000913A0110913B0120913C0130913D0177
:1003F00086B5A89B06C08F3F21F00F5F1F4F2F4F80
:100400003F4F9FBF322F212F102F0027080F111DA4
:10041000211D311D42E0000F111F221F331F4A957D
:10042000D1F7B801C9011F910F910895CF92DF92C2
:10043000EF92FF92CF93DF936B017C010E94EC015E
:10044000EB010EC00E94EC016C1B7D0B683E7340FB
:1004500038F081E0C81AD108E108F108C851DC4F32
:10046000C114D104E104F10469F7DF91CF91FF9049
:10047000EF90DF90CF900895789484B5826084BD2A
:1004800084B5816084BD85B5826085BD85B5816098
:1004900085BDEEE6F0E0808181608083E1E8F0E0F8
:1004A0001082808182608083808181608083E0E827
:1004B000F0E0808181608083E1EBF0E08081846006
:1004C0008083E0EBF0E0808181608083EAE7F0E008
:1004D000808184608083808182608083808181606C
:1004E00080838081806880831092C100089583306A
:1004F00069F028F48130A1F0823011F514C0863003
:10050000B1F08730C1F08430D9F404C0809180000C
:100510008F7703C0809180008F7D80938000089545
:1005200084B58F7702C084B58F7D84BD0895809196
:10053000B0008F7703C08091B0008F7D8093B000B2
:100540000895CF93DF9390E0FC01E458FF4F44916E
:10055000FC01E057FF4F8491882341F190E0880F20
:10056000991FFC01E255FF4F25913491D9018C551B
:100570009F4FFC0185919491C82FD92F9FB7F89474
:100580008C91611106C0409584238C9388818423CB
:1005900008C0623041F4242F209582238C938881F7
:1005A000842B888302C0842B8C939FBFDF91CF91D3
:1005B00008950F931F93CF93DF931F92CDB7DEB7AC
:1005C000282F30E0F901E859FF4F8491F901E458F0
:1005D000FF4F1491F901E057FF4F04910023D1F030
:1005E000882321F069830E9477026981E02FF0E07F
:1005F000EE0FFF1FEC55FF4F85919491DC019FB7E3
:10060000F8948C91611103C01095812301C0812B56
:100610008C939FBF0F90DF91CF911F910F91089501
:10062000FC0184859585FC01E05CFF4F20813181D0
:10063000FC01EE5BFF4F80819181281B390B2F73EA
:100640003327C9010895FC0184859585FC01E05C90
:10065000FF4F40815181FC01EE5BFF4F20813181D2
:100660004217530741F00190F081E02DE80FF91F88
:10067000208130E002C02FEF3FEFC9010895FC0157
:1006800084859585FC01E05CFF4F40815181FC0130
:10069000EE5BFF4F208131814217530781F0A0812B
:1006A000B181A80FB91F8C91208131812F5F3F4FFD
:1006B0002F73332731832083282F30E002C02FEFA0
:1006C0003FEFC9010895FC0186859785FC01E05C38
:1006D000FF4FDC01AE5BBF4F408151812D913C91BA
:1006E000119742175307C1F70895CF93DF93FC0189
:1006F00086859785DC01A05CBF4F2D913C911197B9
:100700002F5F3F4F2F733327EC01CE5BDF4F4881C4
:10071000598124173507D9F30D90BC91A02DA80F4E
:10072000B91F6C93A685B785A05CBF4F11963C930B
:100730002E93A689B7892C9181E090E0058C02C0A8
:10074000880F991F0A94E2F7282B2C9381E090E000
:10075000DF91CF91089508951F920F920FB60F92D7
:1007600011242F933F934F938F939F93EF93FF9376
:100770004091C6008091E2019091E30101968F7350
:1007800099272091E4013091E5018217930759F0F0
:10079000E091E201F091E301EE55FE4F408390932A
:1007A000E3018093E201FF91EF919F918F914F912F
:1007B0003F912F910F900FBE0F901F9018958FE3D0
:1007C00091E00E941003892B11F00C94AB03089563
:1007D0001F920F920FB60F9211242F933F938F9376
:1007E0009F93EF93FF9320919E0130919F01809101
:1007F000A0019091A1012817390731F48091C1001F
:100800008F7D8093C10014C0E091A001F091A101FF
:10081000E25AFE4F20818091A0019091A1010196A2
:100820008F7399279093A1018093A0012093C60014
:10083000FF91EF919F918F913F912F910F900FBE5C
:100840000F901F901895CF92DF92EF92FF92CF9367
:10085000DF93EC016A017B01411581EE58076105C8
:100860007105F9F0EC89FD8981E090E00E8C02C001
:10087000880F991F0A94E2F7808360E079E08DE3A6
:1008800090E0A70196010E94930621503109410989
:1008900051095695479537952795211580E13807D9
:1008A00098F0EC89FD89108260E874E88EE190E0B0
:1008B000A70196010E94930621503109410951096F
:1008C0005695479537952795E889F9893083EA89C0
:1008D000FB892083EE89FF89408181E090E09C01C3
:1008E0000A8C02C0220F331F0A94E2F7422B408386
:1008F000EE89FF8940819C010B8C02C0220F331FBF
:100900000A94E2F7422B4083EE89FF8940819C01E3
:100910000C8C02C0220F331F0A94E2F7422B408353
:10092000EE89FF8920810D8C02C0880F991F0A94DF
:10093000E2F7809582238083DF91CF91FF90EF9043
:10094000DF90CF90089581E00895109242011092B7
:10095000410188EE93E0A0E0B0E0809343019093E2
:100960004401A0934501B093460183E291E0909346
:10097000400180933F0182EA91E090934C01809383
:100980004B018EE591E090934E0180934D0185ECF3
:1009900090E09093500180934F0184EC90E090930D
:1009A00052018093510180EC90E090935401809328
:1009B000530181EC90E0909356018093550186ECB1
:1009C00090E0909358018093570184E080935901FF
:1009D00083E080935A0187E080935B0185E08093F8
:1009E0005C0181E080935D0108950E943C020E94B9
:1009F0008700CFEDD3E00E94BF002097E1F30E9473
:100A0000DF03F9CFCF92DF92EF92FF920F931F9304
:100A1000CF93DF936C01EB017A01E60EF71E00E045
:100A200010E00BC06991D601ED91FC910190F0812D
:100A3000E02DC6010995080F191FCE15DF0591F7A6
:100A4000C801DF91CF911F910F91FF90EF90DF9040
:100A5000CF900895DB010D900020E9F7AD014150E2
:100A60005109461B570BDC01ED91FC910280F3818B
:100A7000E02D09940C942A05DC01ED91FC91019084
:100A8000F081E02D09940F931F93CF93DF93EC0136
:100A90006DE00E943C058C016AE0CE010E943C059D
:100AA0009C01200F311FC901DF91CF911F910F9140
:100AB00008950F931F93CF93DF93EC010E942A05B3
:100AC0008C01CE010E9443059801280F391FC901EE
:100AD000DF91CF911F910F9108954F925F926F9286
:100AE0007F929F92AF92BF92CF92DF92EF92FF924E
:100AF0000F931F93CF93DF93CDB7DEB7A1970FB6B8
:100B0000F894DEBF0FBECDBF5C016A017B01922E5F
:100B100019A281E0821710F08AE0982E8E010F5DF5
:100B20001F4F492C512C612C712CC701B601A30118
:100B300092010E9493068C2D929E801911240150DF
:100B400011098A3014F4805D01C0895CF80180834A
:100B500069017A01C114D104E104F10431F7B8014B
:100B6000C5010E942A05A1960FB6F894DEBF0FBEFC
:100B7000CDBFDF91CF911F910F91FF90EF90DF904C
:100B8000CF90BF90AF909F907F906F905F904F906D
:100B90000895CF92DF92EF92FF920F931F93CF931E
:100BA000DF93EC016A017B012115310579F4E881BD
:100BB000F9810190F081E02D642FDF91CF911F9199
:100BC0000F91FF90EF90DF90CF9009942A3031057C
:100BD00019F477FD0EC02AE0B701A601CE01DF911E
:100BE000CF911F910F91FF90EF90DF90CF900C94D9
:100BF0006D056DE20E943C058C0144275527BA0122
:100C00004C195D096E097F092AE0CE010E946D052D
:100C1000080F191FC801DF91CF911F910F91FF900D
:100C2000EF90DF90CF9008950F931F93CF93DF93B2
:100C3000EC019A01AB01662757FD6095762F0E9463
:100C4000C9058C01CE010E9443059801280F391F68
:100C5000C901DF91CF911F910F9108954F925F923B
:100C60006F927F92AF92BF92CF92DF92EF92FF92FC
:100C70000F931F93CF93DF93CDB7DEB729013A01CE
:100C8000621B730B840B950B29893A894B895C890C
:100C90002A193B094C095D09298B3A8B4B8B5C8BDC
:100CA0009B01AC0169897A898B899C890E948306A2
:100CB000E418F50806091709A80197010E94B5066E
:100CC0002A0D3B1D4C1D5D1DB901CA01DF91CF915D
:100CD0001F910F91FF90EF90DF90CF90BF90AF905A
:100CE0007F906F905F904F900895F8940C94E30676
:100CF0000E94D106A59F900DB49F900DA49F800DDA
:100D0000911D11240895DB018F939F930E94780613
:100D1000BF91AF91A29F800D911DA39F900DB29F97
:100D2000900D11240895A1E21A2EAA1BBB1BFD01F0
:100D30000DC0AA1FBB1FEE1FFF1FA217B307E407BA
:100D4000F50720F0A21BB30BE40BF50B661F771F12
:100D5000881F991F1A9469F76095709580959095F2
:100D60009B01AC01BD01CF010895052E97FB16F440
:100D7000009407D057FD0DD00E94930607FC09D0C0
:100D80007EF490958095709561957F4F8F4F9F4F22
:100D9000089550954095309521953F4F4F4F5F4FA7
:100DA0000895A29FB001B39FC001A39F01D0B29F3D
:100DB000700D811D1124911D0895EE0FFF1F0590E8
:0A0DC000F491E02D0994F894FFCFA0
:100DCA000B0003000D0001736574757000416E61BC
:100DDA006C6F672072656164696E67203D20000050
:100DEA000000007503020510033F03230363030099
:00000001FF
