:100000000C949F000C94C7000C94C7000C94C7007C
:100010000C94C7000C94C7000C94C7000C94C70044
:100020000C94C7000C94C7000C94C7000C94C70034
:100030000C94C7000C94C7000C94C7000C94C70024
:100040000C94B9020C94C7000C94CD040C940905CF
:100050000C94C7000C94C7000C94C7000C94C70004
:100060000C94C7000C94C70007634236B79BD8A70F
:100070001A39685618AEBAAB558C1D3CB7CC5763CD
:10008000BD6DEDFD753EF6177231BF000000803F7B
:1000900008000000BE922449123EABAAAA2ABECD97
:1000A000CCCC4C3E00000080BEABAAAAAA3E000009
:1000B0000000BF000000803F000000000008417801
:1000C000D3BB4387D1133D190E3CC3BD4282AD2B38
:1000D0003E68EC8276BED98FE1A93E4C80EFFFBE30
:1000E00001C4FF7F3F000000000000000007000285
:1000F00001000003040600000000000000000102EF
:1001000004081020408001020408102001020408A5
:100110001020040404040404040402020202020283
:1001200003030303030300000000250028002B0045
:1001300000000000240027002A00A602C4051124A4
:100140001FBECFEFD8E0DEBFCDBF11E0A0E0B1E031
:10015000EAECF6E102C005900D92A233B107D9F79F
:1001600011E0A2E3B1E001C01D92A23FB107E1F7A7
:1001700011E0CEE3D1E004C02297FE010E945F0BA4
:10018000CA33D107C9F70E9414060C9472070C9465
:1001900000004F925F926F927F928F929F92AF92E8
:1001A000BF92CF92DF92EF92FF92CF93DF93EC0159
:1001B00028EE33E0DB010E94C90A4B015C012E01ED
:1001C000440C551C662457FC6094762CC12CD12C11
:1001D000760114C061E0809104010E94FA03CE010F
:1001E0000E94530360E0809104010E94FA03CE0153
:1001F0000E945303C40CD51CE61CF71CC814D90478
:10020000EA04FB043CF3DF91CF91FF90EF90DF9085
:10021000CF90BF90AF909F908F907F906F905F90A6
:100220004F9008959F92AF92BF92CF92DF92EF923C
:10023000FF920F931F93CF93DF93CDB7DEB76897ED
:100240000FB6F894DEBF0FBECDBF982E5B0198E0CD
:10025000E9E0F1E0DE01519601900D929A95E1F707
:1002600090E1E1E1F1E0DE01119601900D929A95A5
:10027000E1F78E010F5E1F4FEE24E394F12CEC0E9C
:10028000FD1E6E0189E1C80ED11CF80181918F011C
:10029000891106C0B501F701808191810E94C900D2
:1002A000F2E0EF0EF11C0C151D0579F768960FB6FC
:1002B000F894DEBF0FBECDBFDF91CF911F910F919C
:1002C000FF90EF90DF90CF90BF90AF909F900895F8
:1002D00061E0809106010E94C20361E08091040107
:1002E0000E94C20361E0809102010E94C20340E8C3
:1002F00055E260E070E08BE491E00E94440560917B
:1003000000017091010183E60E94120180910001B9
:100310009091010197FD0396BC01759567957595C0
:100320006795882777FD8095982F0E942D0360910F
:1003300000017091010184E60E9412018091000188
:100340009091010197FD0396BC0175956795759590
:100350006795882777FD8095982F0E942D036091DF
:10036000000170910101660F771F83E60E94120160
:10037000809100019091010197FD0396BC01759554
:10038000679575956795882777FD8095982F0E94CA
:100390002D03609100017091010177FF02C06F5F32
:1003A0007F4F7595679583E40E941201809100014B
:1003B0009091010197FD0396BC0175956795759520
:1003C0006795882777FD8095982F0E942D0360916F
:1003D00000017091010177FF02C06D5F7F4F75953D
:1003E00067957595679583E40E94120180910001DD
:1003F0009091010197FD0396BC01759567957595E0
:100400006795882777FD8095982F0E942D0380910E
:1004100000019091010166E070E00E94FF0A83E410
:100420000C94120182E391E00E94CA0660E08739D1
:1004300091050CF47CC0809102010E94FA0361E0F6
:10044000809106010E94FA03609100017091010100
:1004500083E60E941201809100019091010197FDB5
:100460000396BC017595679575956795882777FD07
:100470008095982F0E942D036091000170910101D9
:1004800077FF02C06F5F7F4F7595679583E40E9489
:100490001201809100019091010197FD0396BC012A
:1004A0007595679575956795882777FD8095982F41
:1004B0000E942D03609100017091010177FF02C03D
:1004C0006F5F7F4F7595679586E60E941201809158
:1004D00000019091010197FD0396BC017595679508
:1004E00075956795882777FD8095982F0E942D0335
:1004F000609100017091010177FF02C06F5F7F4F33
:100500007595679586E60E94120180910001909191
:10051000010197FD0396BC017595679575956795E3
:10052000882777FD8095982F0E942D0309C0809120
:1005300006010E94FA0361E0809102010E94FA0321
:1005400068EE73E080E090E00C942D030F931F930E
:10055000609140017091410108E314E02DE530E025
:1005600049E150E082E391E00E9449061F910F911A
:1005700008951F920F920FB60F9211242F933F935D
:100580008F939F93AF93BF938091420190914301CA
:10059000A0914401B091450130914A01232F2D5F74
:1005A0002D3720F40196A11DB11D05C0232F2A5718
:1005B0000296A11DB11D20934A01809342019093A0
:1005C0004301A0934401B09345018091460190916D
:1005D0004701A0914801B09149010196A11DB11DAB
:1005E0008093460190934701A0934801B09349013D
:1005F000BF91AF919F918F913F912F910F900FBE1F
:100600000F901F9018950F931F939FB7F894009128
:10061000460110914701209148013091490186B56A
:10062000A89B06C08F3F21F00F5F1F4F2F4F3F4FFA
:100630009FBF322F212F102F0027080F111D211DC2
:10064000311D42E0000F111F221F331F4A95D1F7C1
:10065000B801C9011F910F910895CF92DF92EF92D7
:10066000FF92CF93DF936B017C010E940303EB01A8
:100670000EC00E9403036C1B7D0B683E734038F074
:1006800081E0C81AD108E108F108C851DC4FC11453
:10069000D104E104F10469F7DF91CF91FF90EF906D
:1006A000DF90CF900895019739F0880F991F880F38
:1006B000991F02970197F1F70895789484B58260A5
:1006C00084BD84B5816084BD85B5826085BD85B5F6
:1006D000816085BDEEE6F0E0808181608083E1E8A5
:1006E000F0E01082808182608083808181608083DD
:1006F000E0E8F0E0808181608083E1EBF0E08081E0
:1007000084608083E0EBF0E0808181608083EAE7B1
:10071000F0E080818460808380818260808380813A
:10072000816080838081806880831092C1000895F9
:10073000833069F028F48130A1F0823011F514C0C3
:100740008630B1F08730C1F08430D9F404C0809194
:1007500080008F7703C0809180008F7D8093800020
:10076000089584B58F7702C084B58F7D84BD0895C8
:100770008091B0008F7703C08091B0008F7D80930F
:10078000B0000895CF93DF9390E0FC01E250FF4F5B
:100790004491FC01EE5EFE4F8491882341F190E08C
:1007A000880F991FFC01E05DFE4F25913491D9011E
:1007B0008A5D9E4FFC0185919491C82FD92F9FB7D8
:1007C000F8948C91611106C0409584238C938881A4
:1007D000842308C0623041F4242F209582238C9317
:1007E0008881842B888302C0842B8C939FBFDF91E8
:1007F000CF9108950F931F93CF93DF931F92CDB79F
:10080000DEB7282F30E0F901E651FF4F8491F9015E
:10081000E250FF4F1491F901EE5EFE4F0491002368
:10082000D1F0882321F069830E9498036981E02F29
:10083000F0E0EE0FFF1FEA5DFE4F85919491DC0121
:100840009FB7F8948C91611103C01095812301C06A
:10085000812B8C939FBF0F90DF91CF911F910F91B0
:100860000895FC0184859585FC01E05CFF4F2081A3
:100870003181FC01EE5BFF4F80819181281B390B98
:100880002F733327C9010895FC0184859585FC01E8
:10089000E05CFF4F40815181FC01EE5BFF4F208106
:1008A00031814217530741F00190F081E02DE80FAC
:1008B000F91F208130E002C02FEF3FEFC9010895FA
:1008C000FC0184859585FC01E05CFF4F40815181EE
:1008D000FC01EE5BFF4F208131814217530781F00D
:1008E000A081B181A80FB91F8C91208131812F5F28
:1008F0003F4F2F73332731832083282F30E002C0EE
:100900002FEF3FEFC9010895FC0186859785FC0113
:10091000E05CFF4FDC01AE5BBF4F408151812D9108
:100920003C91119742175307C1F70895CF93DF9376
:10093000FC0186859785DC01A05CBF4F2D913C9121
:1009400011972F5F3F4F2F733327EC01CE5BDF4FA3
:100950004881598124173507D9F30D90BC91A02DFA
:10096000A80FB91F6C93A685B785A05CBF4F1196E1
:100970003C932E93A689B7892C9181E090E0058C59
:1009800002C0880F991F0A94E2F7282B2C9381E06C
:1009900090E0DF91CF91089508951F920F920FB6C6
:1009A0000F9211242F933F934F938F939F93EF9325
:1009B000FF934091C6008091EE019091EF01019666
:1009C0008F7399272091F0013091F10182179307DD
:1009D00059F0E091EE01F091EF01E255FE4F4083B6
:1009E0009093EF018093EE01FF91EF919F918F9192
:1009F0004F913F912F910F900FBE0F901F90189520
:100A00008BE491E00E943104892B11F00C94CC040A
:100A100008951F920F920FB60F9211242F933F93B8
:100A20008F939F93EF93FF932091AA013091AB0195
:100A30008091AC019091AD012817390731F4809174
:100A4000C1008F7D8093C10014C0E091AC01F09192
:100A5000AD01E659FE4F20818091AC019091AD012E
:100A600001968F7399279093AD018093AC012093E9
:100A7000C600FF91EF919F918F913F912F910F9021
:100A80000FBE0F901F901895CF92DF92EF92FF92BA
:100A9000CF93DF93EC016A017B01411581EE58078A
:100AA00061057105F9F0EC89FD8981E090E00E8C1B
:100AB00002C0880F991F0A94E2F7808360E079E012
:100AC0008DE390E0A70196010E94130B215031099C
:100AD000410951095695479537952795211580E18C
:100AE000380798F0EC89FD89108260E874E88EE19F
:100AF00090E0A70196010E94130B21503109410992
:100B000051095695479537952795E889F989308396
:100B1000EA89FB892083EE89FF89408181E090E0AA
:100B20009C010A8C02C0220F331F0A94E2F7422B69
:100B30004083EE89FF8940819C010B8C02C0220F0B
:100B4000331F0A94E2F7422B4083EE89FF894081EC
:100B50009C010C8C02C0220F331F0A94E2F7422B37
:100B60004083EE89FF8920810D8C02C0880F991F78
:100B70000A94E2F7809582238083DF91CF91FF90E2
:100B8000EF90DF90CF90089510924E0110924D019A
:100B900088EE93E0A0E0B0E080934F019093500185
:100BA000A0935101B093520185E291E090934C01E2
:100BB00080934B018EEA91E0909358018093570106
:100BC0008AE691E090935A018093590185EC90E078
:100BD00090935C0180935B0184EC90E090935E01C4
:100BE00080935D0180EC90E09093600180935F01C1
:100BF00081EC90E0909362018093610186EC90E03B
:100C0000909364018093630184E08093650183E0A5
:100C10008093660187E08093670185E08093680197
:100C200081E08093690108950E945D030E9468013C
:100C3000C0E0D5E00E9412022097E1F30E94000577
:100C4000F9CFCF92DF92EF92FF920F931F93CF9342
:100C5000DF936C01EB017A01E60EF71E00E010E075
:100C60000BC06991D601ED91FC910190F081E02DCE
:100C7000C6010995080F191FCE15DF0591F7C801A8
:100C8000DF91CF911F910F91FF90EF90DF90CF9068
:100C900008950F931F93FC01C901718360835583ED
:100CA000448364E670E00E94FF0A758764871383BB
:100CB000028381E01F910F910C9407078F929F92FE
:100CC000AF92BF92CF92DF92EF92FF920F931F935A
:100CD000CF93DF93EC0188810E940A07BC0188272B
:100CE00077FD8095982F1F921F9223E12F9328E87C
:100CF0002F93A12CB12C6501EE24EA9413E0F12E80
:100D000000E010E020E030E0A9010E942B070E94E3
:100D100075082A813B810F900F900F900F90283318
:100D200044E0340789F420E030E04AE754E40E94CC
:100D3000DA072EE03DE24AE95FEB0E94640922EF08
:100D400032ED4DED51E413C0263B3E44A9F420E0C2
:100D500030E04AE754E40E94DA072FE93BEA4DE825
:100D60005FEB0E94640921EC3AE446E752E40E94FA
:100D700001090E9442084B01C401DF91CF911F91EC
:100D80000F91FF90EF90DF90CF90BF90AF909F902A
:100D90008F9008950F931F93CF93DF93EC011F82E1
:100DA0001E821986188600E010E020C0CE010E9445
:100DB0005E066C857D854A855B85649F9001659F95
:100DC000300D749F300D1124821793076CF09B87B0
:100DD0008A8728853985280F391F398728878E818A
:100DE0009F8101969F838E830F5F1F4F8C819D8112
:100DF00008171907DCF2888599856E817F810E942A
:100E0000FF0ACB01DF91CF911F910F91089580933D
:100E1000080108958E3008F08E50877020910801E7
:100E200040E4249F90011124822B80937C008091C8
:100E30007A00806480937A0080917A0086FDFCCFEE
:100E40002091780030917900932F80E0AC01422B03
:100E50009A01C90108954F925F926F927F92AF926B
:100E6000BF92CF92DF92EF92FF920F931F93CF9397
:100E7000DF93CDB7DEB729013A01621B730B840BF8
:100E8000950B29893A894B895C892A193B094C09B8
:100E90005D09298B3A8B4B8B5C8B9B01AC0169897B
:100EA0007A898B899C890E94DB0AE418F508060977
:100EB0001709A80197010E94350B2A0D3B1D4C1DF7
:100EC0005D1DB901CA01DF91CF911F910F91FF9074
:100ED000EF90DF90CF90BF90AF907F906F905F903A
:100EE0004F900895F8940C94630B5058BB27AA2791
:100EF0000ED04DC13ED130F043D120F031F49F3FB0
:100F000011F41EF433C10EF4E095E7FB29C1E92F7B
:100F10004FD180F3BA17620773078407950718F05B
:100F200071F49EF567C10EF4E0950B2EBA2FA02D3B
:100F30000B01B90190010C01CA01A0011124FF2786
:100F4000591B99F0593F50F4503E68F11A16F04081
:100F5000A22F232F342F4427585FF3CF4695379580
:100F60002795A795F0405395C9F77EF41F16BA0B45
:100F7000620B730B840BBAF09150A1F0FF0FBB1FF3
:100F8000661F771F881FC2F70EC0BA0F621F731F3C
:100F9000841F48F4879577956795B795F7959E3F99
:100FA00008F0B3CF9395880F08F09927EE0F979527
:100FB000879508950CD0EBC0E3D040F0DAD030F044
:100FC00021F45F3F19F0CCC0511115C1CFC0F0D052
:100FD00098F39923C9F35523B1F3951B550BBB2700
:100FE000AA2762177307840738F09F5F5F4F220FAD
:100FF000331F441FAA1FA9F333D00E2E3AF0E0E8A6
:1010000030D091505040E695001CCAF729D0FE2FF1
:1010100027D0660F771F881FBB1F26173707480783
:10102000AB07B0E809F0BB0B802DBF01FF27935839
:101030005F4F2AF09E3F510568F092C0DCC05F3FD1
:10104000ECF3983EDCF3869577956795B795F79521
:101050009F5FC9F7880F911D9695879597F9089519
:10106000E1E0660F771F881FBB1F621773078407B5
:10107000BA0720F0621B730B840BBA0BEE1F88F7C4
:10108000E095089504D06894B111B5C0089598D042
:1010900088F09F5790F0B92F9927B751A0F0D1F061
:1010A000660F771F881F991F1AF0BA95C9F712C0EB
:1010B000B13081F09FD0B1E008959CC0672F782FA8
:1010C0008827B85F39F0B93FCCF386957795679557
:1010D000B395D9F73EF490958095709561957F4FC3
:1010E0008F4F9F4F0895E89409C097FB3EF4909569
:1010F0008095709561957F4F8F4F9F4F9923A9F0F1
:10110000F92F96E9BB279395F6958795779567957F
:10111000B795F111F8CFFAF4BB0F11F460FF1BC0C3
:101120006F5F7F4F8F4F9F4F16C0882311F096E956
:1011300011C0772321F09EE8872F762F05C0662304
:1011400071F096E8862F70E060E02AF09A95660FBD
:10115000771F881FDAF7880F9695879597F9089576
:1011600097F99F6780E870E060E008959FEF80EC5A
:10117000089500240A9416161706180609060895FD
:1011800000240A9412161306140605060895092E63
:101190000394000C11F4882352F0BB0F40F4BF2BD2
:1011A00011F460FF04C06F5F7F4F8F4F9F4F089512
:1011B00057FD9058440F551F59F05F3F71F0479508
:1011C000880F97FB991F61F09F3F79F087950895ED
:1011D000121613061406551FF2CF4695F1DF08C00C
:1011E000161617061806991FF1CF86957105610529
:1011F00008940895E894BB2766277727CB0197F9D1
:1012000008950BD0C4CFB5DF28F0BADF18F09523CE
:1012100009F0A6CFABCF1124EECFCADFA0F3959F84
:10122000D1F3950F50E0551F629FF001729FBB27CD
:10123000F00DB11D639FAA27F00DB11DAA1F649F79
:101240006627B00DA11D661F829F2227B00DA11D2C
:10125000621F739FB00DA11D621F839FA00D611DB2
:10126000221F749F3327A00D611D231F849F600DD3
:10127000211D822F762F6A2F11249F5750408AF00C
:10128000E1F088234AF0EE0FFF1FBB1F661F771F98
:10129000881F91505040A9F79E3F510570F060CFD4
:1012A000AACF5F3FECF3983EDCF386957795679580
:1012B000B795F795E7959F5FC1F7FE2B880F911DB6
:1012C0009695879597F90895FA01EE0FFF1F3096CE
:1012D0002105310599F16115710561F48038BFE38D
:1012E0009B0749F168949038810561F08038BFEF21
:1012F0009B0741F0992342F5FF3FE10531052105A8
:1013000011F1E8940894E795D901AA2329F4AB2FA9
:10131000BE2FF85FD0F310C0FF5F70F4A695E0F722
:10132000F73950F019F0FF3A38F49F779F930CD0BB
:101330000F9007FC905808953EF018CF60E070E0E1
:1013400080E89FE308954FE79F775F934F933F9324
:101350002F939ED02F913F914F915F9152DF05C007
:1013600019F40EF0FDCE46CF01CF2ADFC8F3963830
:10137000C0F707F80F92E8942BE33AEA48EB5FE7EF
:101380004EDF0F920F920F924DB75EB70F92C0D003
:10139000E8E6F0E016D04F915F91EF91FF91E5956F
:1013A000EE1FFF1F49F0FE57E0684427EE0F441F71
:1013B000FA95E1F74195550B32D00F9007FE26C004
:1013C0000895DF93CF931F930F93FF92EF92DF92D5
:1013D0007B018C01689405C0DA2EEF011EDFFE014F
:1013E000E894A5912591359145915591AEF3EF0182
:1013F0008EDDFE019701A801DA9479F7DF90EF9076
:10140000FF900F911F91CF91DF9108959B01AC0147
:1014100060E070E080E89FE3CDCDA2CEACC0D0DE2E
:10142000E8F39923D9F3940F511DBBF39150504029
:1014300094F059F0882332F0660F771F881F91507F
:101440005040C1F79E3F510544F7880F911D969576
:10145000879597F908955F3FACF0983E9CF0BB27C5
:10146000869577956795B79508F4B1609395C1F720
:10147000BB0F58F711F460FFE8CF6F5F7F4F8F4FBE
:101480009F4FE3CFB8CE0EF076C070CE689468CE92
:1014900097DEC8F39923D1F3C6F3DF93CF931F935D
:1014A0000F93FF92C92FDD2788232AF02197660F1B
:1014B000771F881FDAF720E030E040E85FEB9FE31A
:1014C000883920F0803E30F021968F770FDDE0E9FB
:1014D000F0E003C00BDDEDEBF0E073DF8B01BE014C
:1014E000EC01FB2E6F5771097595771F880B990BCF
:1014F000FCDD28E132E741E35FE38FDEAF2D9801A9
:10150000AE01FF900F911F91CF91DF9100DD3FCE93
:10151000FA01DC01AA0FBB1F9B01AC01BF5728F4E5
:1015200022273327442750781FC0B75188F4AB2FA8
:101530000024469537952795011CA395D2F30020EA
:1015400069F0220F331F441FB395DAF30DD0CDCCD1
:1015500061307105A0E88A07B94630F49B01AC01FF
:101560006627772788279078309621F0208331836B
:101570004283538308959F3F31F0915020F4879523
:1015800077956795B795880F911D9695879597F9EB
:1015900008950E94510BB7FF0895821B930B089585
:1015A0000E94510BA59F900DB49F900DA49F800D9C
:1015B000911D11240895DB018F939F930E94D00AFF
:1015C000BF91AF91A29F800D911DA39F900DB29FDF
:1015D000900D11240895AA1BBB1B51E107C0AA1F3F
:1015E000BB1FA617B70710F0A61BB70B881F991FC4
:1015F0005A95A9F780959095BC01CD01089597FB68
:10160000072E16F4009407D077FD09D00E94EB0A4C
:1016100007FC05D03EF4909581959F4F08957095F5
:1016200061957F4F0895A1E21A2EAA1BBB1BFD01F5
:101630000DC0AA1FBB1FEE1FFF1FA217B307E407B1
:10164000F50720F0A21BB30BE40BF50B661F771F09
:10165000881F991F1A9469F76095709580959095E9
:101660009B01AC01BD01CF010895052E97FB16F437
:10167000009407D057FD0DD00E94130B07FC09D032
:101680007EF490958095709561957F4F8F4F9F4F19
:10169000089550954095309521953F4F4F4F5F4F9E
:1016A0000895A29FB001B39FC001A39F01D0B29F34
:1016B000700D811D1124911D0895EE0FFF1F0590DF
:0A16C000F491E02D0994F894FFCF97
:1016CA002C01080009000D00016364656667616208
:1016DA00437B07A406EF059805FB047004F603BCD8
:1016EA0003000000009604210631046004440484C7
:0216FA000400EA
:00000001FF
